{
  "transactions": [
    {
      "hash": "0x29fd58b09532014fb188418fba063a1aba11493e97c59535283a61d03f32d0ed",
      "transactionType": "CALL",
      "contractName": null,
      "contractAddress": "0x69207f321cfdfd30d73d1d9278e4132e15080ec9",
      "function": "createToken(bytes,bytes)",
      "arguments": [
        "0x000000000000000000000000000000000000000000000000000000000000002000000000000000000000000000000000000000000000000000000000000001e000000000000000000000000000000000000000000000000000000000000002200000000000000000000000000000000000000000033b2e3c9fd0803ce800000000000000000000000000000000000000000000000295be96e6406697200000000000000000000000000000000000000000000000000000008ac7230489e8000000000000000000000000000000000000000000000295be96e64066972000000000000000000000000000000000000000000000000000000000000000695e36b90000000000000000000000005a7157d6fd2ad4a9edc4686758be77ae480bfe6a00000000000000000000000000000000000000000000000000000000695e36b9742a3a04701ba2b8901a024fdbaca95c8526caf4388efe470436e6ddc951ad5e00000000000000000000000000000000000000000000000000000000000000010000000000000000000000000000000000000000000000000000000000000000000000000000000000000000000000000000000000000000000000000000000000000000000000000000000000000000000000000000000000000000000000000000000000000000000000000000000000000000000000000000000000000260000000000000000000000000000000000000000000000000000000000000000c5465737420546f6b656e20310000000000000000000000000000000000000000000000000000000000000000000000000000000000000000000000000000000554455354310000000000000000000000000000000000000000000000000000000000000000000000000000000000000000000000000000000000000000000000",
        "0xf2223ead79707f7d6738a0055aa25182a9a460524d642eada9bb28976fe043301872ebbc421134d8b6314410d28df325a0b3e74153f92a25f3f5cfb1f668f1e71c"
      ],
      "transaction": {
        "from": "0x5a7157d6fd2ad4a9edc4686758be77ae480bfe6a",
        "to": "0x69207f321cfdfd30d73d1d9278e4132e15080ec9",
        "gas": "0x19d9f3",
        "value": "0xb1a2bc2ec50000",
        "input": "0x519ebb100000000000000000000000000000000000000000000000000000000000000040000000000000000000000000000000000000000000000000000000000000030000000000000000000000000000000000000000000000000000000000000002a0000000000000000000000000000000000000000000000000000000000000002000000000000000000000000000000000000000000000000000000000000001e000000000000000000000000000000000000000000000000000000000000002200000000000000000000000000000000000000000033b2e3c9fd0803ce800000000000000000000000000000000000000000000000295be96e6406697200000000000000000000000000000000000000000000000000000008ac7230489e8000000000000000000000000000000000000000000000295be96e64066972000000000000000000000000000000000000000000000000000000000000000695e36b90000000000000000000000005a7157d6fd2ad4a9edc4686758be77ae480bfe6a00000000000000000000000000000000000000000000000000000000695e36b9742a3a04701ba2b8901a024fdbaca95c8526caf4388efe470436e6ddc951ad5e00000000000000000000000000000000000000000000000000000000000000010000000000000000000000000000000000000000000000000000000000000000000000000000000000000000000000000000000000000000000000000000000000000000000000000000000000000000000000000000000000000000000000000000000000000000000000000000000000000000000000000000000000000260000000000000000000000000000000000000000000000000000000000000000c5465737420546f6b656e203100000000000000000000000000000000000000000000000000000000000000000000000000000000000000000000000000000005544553543100000000000000000000000000000000000000000000000000000000000000000000000000000000000000000000000000000000000000000000000000000000000000000000000000000000000000000000000000000000000041f2223ead79707f7d6738a0055aa25182a9a460524d642eada9bb28976fe043301872ebbc421134d8b6314410d28df325a0b3e74153f92a25f3f5cfb1f668f1e71c00000000000000000000000000000000000000000000000000000000000000",
        "nonce": "0x3e",
        "chainId": "0x61"
      },
      "additionalContracts": [
        {
          "transactionType": "CREATE2",
          "address": "0x5b02ebe72762596ba90884ee717e049833ed3500",
          "initCode": "0x6080604052346103db5761128180380380610019816103df565b9283398101906080818303126103db5780516001600160401b0381116103db5782610045918301610404565b602082015190926001600160401b0382116103db57610065918301610404565b604082015160609092015190916001600160a01b038216918290036103db5783516001600160401b0381116102ec57600354600181811c911680156103d1575b60208210146102ce57601f811161036e575b50602094601f821160011461030b579481929394955f92610300575b50508160011b915f199060031b1c1916176003555b82516001600160401b0381116102ec57600454600181811c911680156102e2575b60208210146102ce57601f811161026b575b506020601f821160011461020857819293945f926101fd575b50508160011b915f199060031b1c1916176004555b81156101ee57600160ff19600554161760055580610186575b50600780546001600160a01b031916919091179055604051610e2b90816104568239f35b6002548181018091116101da577fddf252ad1be2c89b69c2b068fc378daa952ba7f163c4a11628f55a4df523b3ef602084935f9360025584845283825260408420818154019055604051908152a35f610162565b634e487b7160e01b5f52601160045260245ffd5b63d92e233d60e01b5f5260045ffd5b015190505f80610134565b601f1982169060045f52805f20915f5b8181106102535750958360019596971061023b575b505050811b01600455610149565b01515f1960f88460031b161c191690555f808061022d565b9192602060018192868b015181550194019201610218565b60045f527f8a35acfbc15ff81a39ae7d344fd709f28e8600b4aa8c65c6b64bfe7fe36bd19b601f830160051c810191602084106102c4575b601f0160051c01905b8181106102b9575061011b565b5f81556001016102ac565b90915081906102a3565b634e487b7160e01b5f52602260045260245ffd5b90607f1690610109565b634e487b7160e01b5f52604160045260245ffd5b015190505f806100d3565b601f1982169560035f52805f20915f5b8881106103565750836001959697981061033e575b505050811b016003556100e8565b01515f1960f88460031b161c191690555f8080610330565b9192602060018192868501518155019401920161031b565b60035f527fc2575a0e9e593c00f959f8c92f12db2869c3395a3b0502d05e2516446f71f85b601f830160051c810191602084106103c7575b601f0160051c01905b8181106103bc57506100b7565b5f81556001016103af565b90915081906103a6565b90607f16906100a5565b5f80fd5b6040519190601f01601f191682016001600160401b038111838210176102ec57604052565b81601f820112156103db578051906001600160401b0382116102ec57610433601f8301601f19166020016103df565b92828452602083830101116103db57815f9260208093018386015e830101529056fe6080806040526004361015610012575f80fd5b5f3560e01c90816306fdde031461070a57508063095ea7b3146106e457806318160ddd146106c757806323b872dd1461068f578063313ce56714610674578063395093511461061257806342966c68146105f55780635e6f6045146105c95780636b3b64a1146105a257806370a082311461056b57806374991569146104dc57806376ca3a86146104b457806379cc6790146104825780638187f516146103f35780638e33f6a81461036357806395d89b4114610248578063a457c2d7146101a5578063a8aa1b311461017d578063a9059cbb1461014c5763dd62ed3e146100f8575f80fd5b3461014857604036600319011261014857610111610803565b610119610819565b6001600160a01b039182165f908152600160209081526040808320949093168252928352819020549051908152f35b5f80fd5b3461014857604036600319011261014857610172610168610803565b60243590336109ec565b602060405160018152f35b34610148575f366003190112610148576006546040516001600160a01b039091168152602090f35b34610148576040366003190112610148576101be610803565b60243590335f52600160205260405f2060018060a01b0382165f5260205260405f2054918083106101f55761017292039033610850565b60405162461bcd60e51b815260206004820152602560248201527f45524332303a2064656372656173656420616c6c6f77616e63652062656c6f77604482015264207a65726f60d81b6064820152608490fd5b34610148575f366003190112610148576040515f6004548060011c90600181168015610359575b6020831081146103455782855290811561032957506001146102d4575b50819003601f01601f191681019067ffffffffffffffff8211818310176102c0576102bc829182604052826107d9565b0390f35b634e487b7160e01b5f52604160045260245ffd5b905060045f527f8a35acfbc15ff81a39ae7d344fd709f28e8600b4aa8c65c6b64bfe7fe36bd19b5f905b8282106103135750602091508201018261028c565b60018160209254838588010152019101906102fe565b90506020925060ff191682840152151560051b8201018261028c565b634e487b7160e01b5f52602260045260245ffd5b91607f169161026f565b34610148576020366003190112610148576004356003811015610148576007546001600160a01b031633036103e457604060ff6103e17fccedfef8abab65aaf6a3f2c86b1bd2a06375c0ab93cc5046fe397660cb712d21936103d7600554848316851982161760055585519485911661082f565b602083019061082f565ba1005b635630998760e11b5f5260045ffd5b346101485760203660031901126101485761040c610803565b6007546001600160a01b031633036103e4576001600160a01b03168015610473576020817fda4f21f533e11873a9e57f2f9cf7042ea0b213bc1c018b3f7988bb9025ec7c55926bffffffffffffffffffffffff60a01b6006541617600655604051908152a1005b63d92e233d60e01b5f5260045ffd5b34610148576040366003190112610148576104b261049e610803565b602435906104ad823383610954565b610b6f565b005b34610148575f366003190112610148576007546040516001600160a01b039091168152602090f35b34610148576020366003190112610148576104f5610803565b6007546001600160a01b031633036103e4576001600160a01b0381169081156104735760058054610100600160a81b03191660089290921b610100600160a81b03169190911790556040519081527f5dff00aa253c8624dbbbd26ea7b6b161327e629f5ed7a0cde6ff3c66cceb909f90602090a1005b34610148576020366003190112610148576001600160a01b0361058c610803565b165f525f602052602060405f2054604051908152f35b34610148575f36600319011261014857602060ff600554166105c7604051809261082f565bf35b34610148575f3660031901126101485760055460405160089190911c6001600160a01b03168152602090f35b34610148576020366003190112610148576104b260043533610b6f565b346101485760403660031901126101485761062b610803565b335f52600160205260405f2060018060a01b0382165f5260205260405f20546024358101809111610660576101729133610850565b634e487b7160e01b5f52601160045260245ffd5b34610148575f36600319011261014857602060405160128152f35b34610148576060366003190112610148576101726106ab610803565b6106b3610819565b604435916106c2833383610954565b6109ec565b34610148575f366003190112610148576020600254604051908152f35b3461014857604036600319011261014857610172610700610803565b6024359033610850565b34610148575f366003190112610148575f6003548060011c906001811680156107cf575b60208310811461034557828552908115610329575060011461077a5750819003601f01601f191681019067ffffffffffffffff8211818310176102c0576102bc829182604052826107d9565b905060035f527fc2575a0e9e593c00f959f8c92f12db2869c3395a3b0502d05e2516446f71f85b5f905b8282106107b95750602091508201018261028c565b60018160209254838588010152019101906107a4565b91607f169161072e565b602060409281835280519182918282860152018484015e5f828201840152601f01601f1916010190565b600435906001600160a01b038216820361014857565b602435906001600160a01b038216820361014857565b90600382101561083c5752565b634e487b7160e01b5f52602160045260245ffd5b6001600160a01b0316908115610903576001600160a01b03169182156108b35760207f8c5be1e5ebec7d5bd14f71427d1e84f3dd0314c0f7b2291e5b200ac8c7c3b92591835f526001825260405f20855f5282528060405f2055604051908152a3565b60405162461bcd60e51b815260206004820152602260248201527f45524332303a20617070726f766520746f20746865207a65726f206164647265604482015261737360f01b6064820152608490fd5b60405162461bcd60e51b8152602060048201526024808201527f45524332303a20617070726f76652066726f6d20746865207a65726f206164646044820152637265737360e01b6064820152608490fd5b9060018060a01b0382165f52600160205260405f2060018060a01b0382165f5260205260405f2054925f19840361098c575b50505050565b8084106109a75761099e930391610850565b5f808080610986565b60405162461bcd60e51b815260206004820152601d60248201527f45524332303a20696e73756666696369656e7420616c6c6f77616e63650000006044820152606490fd5b90916001600160a01b038216918215610b1c576001600160a01b038416938415610acb57610a1991610d4e565b815f525f60205260405f2054818110610a7757817fddf252ad1be2c89b69c2b068fc378daa952ba7f163c4a11628f55a4df523b3ef92602092855f525f84520360405f2055845f525f825260405f20818154019055604051908152a3565b60405162461bcd60e51b815260206004820152602660248201527f45524332303a207472616e7366657220616d6f756e7420657863656564732062604482015265616c616e636560d01b6064820152608490fd5b60405162461bcd60e51b815260206004820152602360248201527f45524332303a207472616e7366657220746f20746865207a65726f206164647260448201526265737360e81b6064820152608490fd5b60405162461bcd60e51b815260206004820152602560248201527f45524332303a207472616e736665722066726f6d20746865207a65726f206164604482015264647265737360d81b6064820152608490fd5b6001600160a01b038116908115610c3157610b8990610c80565b805f525f60205260405f205491808310610be1576020817fddf252ad1be2c89b69c2b068fc378daa952ba7f163c4a11628f55a4df523b3ef925f958587528684520360408620558060025403600255604051908152a3565b60405162461bcd60e51b815260206004820152602260248201527f45524332303a206275726e20616d6f756e7420657863656564732062616c616e604482015261636560f01b6064820152608490fd5b60405162461bcd60e51b815260206004820152602160248201527f45524332303a206275726e2066726f6d20746865207a65726f206164647265736044820152607360f81b6064820152608490fd5b6001600160a01b031680158015610d46575b610d2a573015610d375760055490600882901c6001600160a01b03169081149081610d2d575b50610d2a5760ff16600381101561083c5780151580610d17575b80610d03575b610cf457600114610ce557565b637413882f60e11b5f5260045ffd5b63918a96ad60e01b5f5260045ffd5b506006546001600160a01b03161515610cd8565b506006546001600160a01b031615610cd2565b50565b905015155f610cb8565b633928283160e21b5f5260045ffd5b506001610c92565b6001600160a01b03169081158015610de4575b610dd6576001600160a01b031690308214610d375760055490600882901c6001600160a01b03169081149081610dda575b50610dd65760ff1690600382101561083c578115159081610dc1575b5080610d0357610cf457600114610ce557565b6006546001600160a01b03161490505f610dae565b5050565b905015155f610d92565b506001600160a01b03811615610d6156fea26469706673582212208cb7ab480dc2a82966f5c7c1bc2b3cc56c29a0dfa937ff4a127a7a4779af488564736f6c634300081d0033000000000000000000000000000000000000000000000000000000000000008000000000000000000000000000000000000000000000000000000000000000c00000000000000000000000000000000000000000033b2e3c9fd0803ce800000000000000000000000000000069207f321cfdfd30d73d1d9278e4132e15080ec9000000000000000000000000000000000000000000000000000000000000000c5465737420546f6b656e2031000000000000000000000000000000000000000000000000000000000000000000000000000000000000000000000000000000055445535431000000000000000000000000000000000000000000000000000000"
        }
      ],
      "isFixedGasLimit": false
    },
    {
      "hash": "0x6791f9171df35f840d3b27a89eb5bbf90f1fbb8c43eb439761dd362e63e5a252",
      "transactionType": "CALL",
      "contractName": null,
      "contractAddress": "0x69207f321cfdfd30d73d1d9278e4132e15080ec9",
      "function": "buy(address,uint256,uint256)",
      "arguments": [
        "0x5b02EBe72762596BA90884ee717e049833eD3500",
        "0",
        "1767782373"
      ],
      "transaction": {
        "from": "0x5a7157d6fd2ad4a9edc4686758be77ae480bfe6a",
        "to": "0x69207f321cfdfd30d73d1d9278e4132e15080ec9",
        "gas": "0x2fe18",
        "value": "0x2386f26fc10000",
        "input": "0xa59ac6dd0000000000000000000000005b02ebe72762596ba90884ee717e049833ed3500000000000000000000000000000000000000000000000000000000000000000000000000000000000000000000000000000000000000000000000000695e37e5",
        "nonce": "0x3f",
        "chainId": "0x61"
      },
      "additionalContracts": [],
      "isFixedGasLimit": false
    },
    {
      "hash": "0x14c5714070e9b12454bd347f303e4601822698858015b73d2b6d36ae2fe640b8",
      "transactionType": "CALL",
      "contractName": "MetaNodeToken",
      "contractAddress": "0x5b02ebe72762596ba90884ee717e049833ed3500",
      "function": "approve(address,uint256)",
      "arguments": [
        "0x69207F321CFDfd30D73D1d9278e4132E15080ec9",
        "395608347735741615800358"
      ],
      "transaction": {
        "from": "0x5a7157d6fd2ad4a9edc4686758be77ae480bfe6a",
        "to": "0x5b02ebe72762596ba90884ee717e049833ed3500",
        "gas": "0xf879",
        "value": "0x0",
        "input": "0x095ea7b300000000000000000000000069207f321cfdfd30d73d1d9278e4132e15080ec90000000000000000000000000000000000000000000053c5f8b472cc99178026",
        "nonce": "0x40",
        "chainId": "0x61"
      },
      "additionalContracts": [],
      "isFixedGasLimit": false
    },
    {
      "hash": "0xd8faddb84dc45af8637da3f8f8d40d923d54d720ae0d12486c2193d9ec08dc7e",
      "transactionType": "CALL",
      "contractName": null,
      "contractAddress": "0x69207f321cfdfd30d73d1d9278e4132e15080ec9",
      "function": "sell(address,uint256,uint256,uint256)",
      "arguments": [
        "0x5b02EBe72762596BA90884ee717e049833eD3500",
        "395608347735741615800358",
        "0",
        "1767782373"
      ],
      "transaction": {
        "from": "0x5a7157d6fd2ad4a9edc4686758be77ae480bfe6a",
        "to": "0x69207f321cfdfd30d73d1d9278e4132e15080ec9",
        "gas": "0x2a267",
        "value": "0x0",
        "input": "0x92cdbac50000000000000000000000005b02ebe72762596ba90884ee717e049833ed35000000000000000000000000000000000000000000000053c5f8b472cc99178026000000000000000000000000000000000000000000000000000000000000000000000000000000000000000000000000000000000000000000000000695e37e5",
        "nonce": "0x41",
        "chainId": "0x61"
      },
      "additionalContracts": [],
      "isFixedGasLimit": false
    },
    {
      "hash": "0x9cb78578abb52512d92b5d233d9257efeddc7d779744a77b33d18142688f39c3",
      "transactionType": "CALL",
      "contractName": null,
      "contractAddress": "0x69207f321cfdfd30d73d1d9278e4132e15080ec9",
      "function": "createToken(bytes,bytes)",
      "arguments": [
        "0x000000000000000000000000000000000000000000000000000000000000002000000000000000000000000000000000000000000000000000000000000001e000000000000000000000000000000000000000000000000000000000000002200000000000000000000000000000000000000000033b2e3c9fd0803ce800000000000000000000000000000000000000000000000295be96e6406697200000000000000000000000000000000000000000000000000000008ac7230489e8000000000000000000000000000000000000000000000295be96e64066972000000000000000000000000000000000000000000000000000000000000000695e36b90000000000000000000000005a7157d6fd2ad4a9edc4686758be77ae480bfe6a00000000000000000000000000000000000000000000000000000000695e36b99fd6e853c800cd0dbc57e4086c458a63dcbdc09a7fa3fc38940e4b3436767689000000000000000000000000000000000000000000000000000000000000000200000000000000000000000000000000000000000000000000000000000001f400000000000000000000000000000000000000000000000000000000000000000000000000000000000000000000000000000000000000000000000000000000000000000000000000000000000000000000000000000000000000000000026000000000000000000000000000000000000000000000000000000000000000175465737420546f6b656e203220496e697469616c427579000000000000000000000000000000000000000000000000000000000000000000000000000000000554455354320000000000000000000000000000000000000000000000000000000000000000000000000000000000000000000000000000000000000000000000",
        "0x0b49586c47e58de93103b04d82c7a054eae37c37abe307ae399bafe0527eaf6912f50bc0ffcfdef35cc7bae7cf43c548981564d1be3b7593d0cba78b27c32a6c1b"
      ],
      "transaction": {
        "from": "0x5a7157d6fd2ad4a9edc4686758be77ae480bfe6a",
        "to": "0x69207f321cfdfd30d73d1d9278e4132e15080ec9",
        "gas": "0x1cb232",
        "value": "0xa392a6e2889aaa9",
        "input": "0x519ebb100000000000000000000000000000000000000000000000000000000000000040000000000000000000000000000000000000000000000000000000000000030000000000000000000000000000000000000000000000000000000000000002a0000000000000000000000000000000000000000000000000000000000000002000000000000000000000000000000000000000000000000000000000000001e000000000000000000000000000000000000000000000000000000000000002200000000000000000000000000000000000000000033b2e3c9fd0803ce800000000000000000000000000000000000000000000000295be96e6406697200000000000000000000000000000000000000000000000000000008ac7230489e8000000000000000000000000000000000000000000000295be96e64066972000000000000000000000000000000000000000000000000000000000000000695e36b90000000000000000000000005a7157d6fd2ad4a9edc4686758be77ae480bfe6a00000000000000000000000000000000000000000000000000000000695e36b99fd6e853c800cd0dbc57e4086c458a63dcbdc09a7fa3fc38940e4b3436767689000000000000000000000000000000000000000000000000000000000000000200000000000000000000000000000000000000000000000000000000000001f400000000000000000000000000000000000000000000000000000000000000000000000000000000000000000000000000000000000000000000000000000000000000000000000000000000000000000000000000000000000000000000026000000000000000000000000000000000000000000000000000000000000000175465737420546f6b656e203220496e697469616c42757900000000000000000000000000000000000000000000000000000000000000000000000000000000055445535432000000000000000000000000000000000000000000000000000000000000000000000000000000000000000000000000000000000000000000000000000000000000000000000000000000000000000000000000000000000000410b49586c47e58de93103b04d82c7a054eae37c37abe307ae399bafe0527eaf6912f50bc0ffcfdef35cc7bae7cf43c548981564d1be3b7593d0cba78b27c32a6c1b00000000000000000000000000000000000000000000000000000000000000",
        "nonce": "0x42",
        "chainId": "0x61"
      },
      "additionalContracts": [
        {
          "transactionType": "CREATE2",
          "address": "0x681855f1982d1effa97d3fcb7f9a4949691ccc30",
          "initCode": "0x6080604052346103db5761128180380380610019816103df565b9283398101906080818303126103db5780516001600160401b0381116103db5782610045918301610404565b602082015190926001600160401b0382116103db57610065918301610404565b604082015160609092015190916001600160a01b038216918290036103db5783516001600160401b0381116102ec57600354600181811c911680156103d1575b60208210146102ce57601f811161036e575b50602094601f821160011461030b579481929394955f92610300575b50508160011b915f199060031b1c1916176003555b82516001600160401b0381116102ec57600454600181811c911680156102e2575b60208210146102ce57601f811161026b575b506020601f821160011461020857819293945f926101fd575b50508160011b915f199060031b1c1916176004555b81156101ee57600160ff19600554161760055580610186575b50600780546001600160a01b031916919091179055604051610e2b90816104568239f35b6002548181018091116101da577fddf252ad1be2c89b69c2b068fc378daa952ba7f163c4a11628f55a4df523b3ef602084935f9360025584845283825260408420818154019055604051908152a35f610162565b634e487b7160e01b5f52601160045260245ffd5b63d92e233d60e01b5f5260045ffd5b015190505f80610134565b601f1982169060045f52805f20915f5b8181106102535750958360019596971061023b575b505050811b01600455610149565b01515f1960f88460031b161c191690555f808061022d565b9192602060018192868b015181550194019201610218565b60045f527f8a35acfbc15ff81a39ae7d344fd709f28e8600b4aa8c65c6b64bfe7fe36bd19b601f830160051c810191602084106102c4575b601f0160051c01905b8181106102b9575061011b565b5f81556001016102ac565b90915081906102a3565b634e487b7160e01b5f52602260045260245ffd5b90607f1690610109565b634e487b7160e01b5f52604160045260245ffd5b015190505f806100d3565b601f1982169560035f52805f20915f5b8881106103565750836001959697981061033e575b505050811b016003556100e8565b01515f1960f88460031b161c191690555f8080610330565b9192602060018192868501518155019401920161031b565b60035f527fc2575a0e9e593c00f959f8c92f12db2869c3395a3b0502d05e2516446f71f85b601f830160051c810191602084106103c7575b601f0160051c01905b8181106103bc57506100b7565b5f81556001016103af565b90915081906103a6565b90607f16906100a5565b5f80fd5b6040519190601f01601f191682016001600160401b038111838210176102ec57604052565b81601f820112156103db578051906001600160401b0382116102ec57610433601f8301601f19166020016103df565b92828452602083830101116103db57815f9260208093018386015e830101529056fe6080806040526004361015610012575f80fd5b5f3560e01c90816306fdde031461070a57508063095ea7b3146106e457806318160ddd146106c757806323b872dd1461068f578063313ce56714610674578063395093511461061257806342966c68146105f55780635e6f6045146105c95780636b3b64a1146105a257806370a082311461056b57806374991569146104dc57806376ca3a86146104b457806379cc6790146104825780638187f516146103f35780638e33f6a81461036357806395d89b4114610248578063a457c2d7146101a5578063a8aa1b311461017d578063a9059cbb1461014c5763dd62ed3e146100f8575f80fd5b3461014857604036600319011261014857610111610803565b610119610819565b6001600160a01b039182165f908152600160209081526040808320949093168252928352819020549051908152f35b5f80fd5b3461014857604036600319011261014857610172610168610803565b60243590336109ec565b602060405160018152f35b34610148575f366003190112610148576006546040516001600160a01b039091168152602090f35b34610148576040366003190112610148576101be610803565b60243590335f52600160205260405f2060018060a01b0382165f5260205260405f2054918083106101f55761017292039033610850565b60405162461bcd60e51b815260206004820152602560248201527f45524332303a2064656372656173656420616c6c6f77616e63652062656c6f77604482015264207a65726f60d81b6064820152608490fd5b34610148575f366003190112610148576040515f6004548060011c90600181168015610359575b6020831081146103455782855290811561032957506001146102d4575b50819003601f01601f191681019067ffffffffffffffff8211818310176102c0576102bc829182604052826107d9565b0390f35b634e487b7160e01b5f52604160045260245ffd5b905060045f527f8a35acfbc15ff81a39ae7d344fd709f28e8600b4aa8c65c6b64bfe7fe36bd19b5f905b8282106103135750602091508201018261028c565b60018160209254838588010152019101906102fe565b90506020925060ff191682840152151560051b8201018261028c565b634e487b7160e01b5f52602260045260245ffd5b91607f169161026f565b34610148576020366003190112610148576004356003811015610148576007546001600160a01b031633036103e457604060ff6103e17fccedfef8abab65aaf6a3f2c86b1bd2a06375c0ab93cc5046fe397660cb712d21936103d7600554848316851982161760055585519485911661082f565b602083019061082f565ba1005b635630998760e11b5f5260045ffd5b346101485760203660031901126101485761040c610803565b6007546001600160a01b031633036103e4576001600160a01b03168015610473576020817fda4f21f533e11873a9e57f2f9cf7042ea0b213bc1c018b3f7988bb9025ec7c55926bffffffffffffffffffffffff60a01b6006541617600655604051908152a1005b63d92e233d60e01b5f5260045ffd5b34610148576040366003190112610148576104b261049e610803565b602435906104ad823383610954565b610b6f565b005b34610148575f366003190112610148576007546040516001600160a01b039091168152602090f35b34610148576020366003190112610148576104f5610803565b6007546001600160a01b031633036103e4576001600160a01b0381169081156104735760058054610100600160a81b03191660089290921b610100600160a81b03169190911790556040519081527f5dff00aa253c8624dbbbd26ea7b6b161327e629f5ed7a0cde6ff3c66cceb909f90602090a1005b34610148576020366003190112610148576001600160a01b0361058c610803565b165f525f602052602060405f2054604051908152f35b34610148575f36600319011261014857602060ff600554166105c7604051809261082f565bf35b34610148575f3660031901126101485760055460405160089190911c6001600160a01b03168152602090f35b34610148576020366003190112610148576104b260043533610b6f565b346101485760403660031901126101485761062b610803565b335f52600160205260405f2060018060a01b0382165f5260205260405f20546024358101809111610660576101729133610850565b634e487b7160e01b5f52601160045260245ffd5b34610148575f36600319011261014857602060405160128152f35b34610148576060366003190112610148576101726106ab610803565b6106b3610819565b604435916106c2833383610954565b6109ec565b34610148575f366003190112610148576020600254604051908152f35b3461014857604036600319011261014857610172610700610803565b6024359033610850565b34610148575f366003190112610148575f6003548060011c906001811680156107cf575b60208310811461034557828552908115610329575060011461077a5750819003601f01601f191681019067ffffffffffffffff8211818310176102c0576102bc829182604052826107d9565b905060035f527fc2575a0e9e593c00f959f8c92f12db2869c3395a3b0502d05e2516446f71f85b5f905b8282106107b95750602091508201018261028c565b60018160209254838588010152019101906107a4565b91607f169161072e565b602060409281835280519182918282860152018484015e5f828201840152601f01601f1916010190565b600435906001600160a01b038216820361014857565b602435906001600160a01b038216820361014857565b90600382101561083c5752565b634e487b7160e01b5f52602160045260245ffd5b6001600160a01b0316908115610903576001600160a01b03169182156108b35760207f8c5be1e5ebec7d5bd14f71427d1e84f3dd0314c0f7b2291e5b200ac8c7c3b92591835f526001825260405f20855f5282528060405f2055604051908152a3565b60405162461bcd60e51b815260206004820152602260248201527f45524332303a20617070726f766520746f20746865207a65726f206164647265604482015261737360f01b6064820152608490fd5b60405162461bcd60e51b8152602060048201526024808201527f45524332303a20617070726f76652066726f6d20746865207a65726f206164646044820152637265737360e01b6064820152608490fd5b9060018060a01b0382165f52600160205260405f2060018060a01b0382165f5260205260405f2054925f19840361098c575b50505050565b8084106109a75761099e930391610850565b5f808080610986565b60405162461bcd60e51b815260206004820152601d60248201527f45524332303a20696e73756666696369656e7420616c6c6f77616e63650000006044820152606490fd5b90916001600160a01b038216918215610b1c576001600160a01b038416938415610acb57610a1991610d4e565b815f525f60205260405f2054818110610a7757817fddf252ad1be2c89b69c2b068fc378daa952ba7f163c4a11628f55a4df523b3ef92602092855f525f84520360405f2055845f525f825260405f20818154019055604051908152a3565b60405162461bcd60e51b815260206004820152602660248201527f45524332303a207472616e7366657220616d6f756e7420657863656564732062604482015265616c616e636560d01b6064820152608490fd5b60405162461bcd60e51b815260206004820152602360248201527f45524332303a207472616e7366657220746f20746865207a65726f206164647260448201526265737360e81b6064820152608490fd5b60405162461bcd60e51b815260206004820152602560248201527f45524332303a207472616e736665722066726f6d20746865207a65726f206164604482015264647265737360d81b6064820152608490fd5b6001600160a01b038116908115610c3157610b8990610c80565b805f525f60205260405f205491808310610be1576020817fddf252ad1be2c89b69c2b068fc378daa952ba7f163c4a11628f55a4df523b3ef925f958587528684520360408620558060025403600255604051908152a3565b60405162461bcd60e51b815260206004820152602260248201527f45524332303a206275726e20616d6f756e7420657863656564732062616c616e604482015261636560f01b6064820152608490fd5b60405162461bcd60e51b815260206004820152602160248201527f45524332303a206275726e2066726f6d20746865207a65726f206164647265736044820152607360f81b6064820152608490fd5b6001600160a01b031680158015610d46575b610d2a573015610d375760055490600882901c6001600160a01b03169081149081610d2d575b50610d2a5760ff16600381101561083c5780151580610d17575b80610d03575b610cf457600114610ce557565b637413882f60e11b5f5260045ffd5b63918a96ad60e01b5f5260045ffd5b506006546001600160a01b03161515610cd8565b506006546001600160a01b031615610cd2565b50565b905015155f610cb8565b633928283160e21b5f5260045ffd5b506001610c92565b6001600160a01b03169081158015610de4575b610dd6576001600160a01b031690308214610d375760055490600882901c6001600160a01b03169081149081610dda575b50610dd65760ff1690600382101561083c578115159081610dc1575b5080610d0357610cf457600114610ce557565b6006546001600160a01b03161490505f610dae565b5050565b905015155f610d92565b506001600160a01b03811615610d6156fea26469706673582212208cb7ab480dc2a82966f5c7c1bc2b3cc56c29a0dfa937ff4a127a7a4779af488564736f6c634300081d0033000000000000000000000000000000000000000000000000000000000000008000000000000000000000000000000000000000000000000000000000000000c00000000000000000000000000000000000000000033b2e3c9fd0803ce800000000000000000000000000000069207f321cfdfd30d73d1d9278e4132e15080ec900000000000000000000000000000000000000000000000000000000000000175465737420546f6b656e203220496e697469616c42757900000000000000000000000000000000000000000000000000000000000000000000000000000000055445535432000000000000000000000000000000000000000000000000000000"
        }
      ],
      "isFixedGasLimit": false
    },
    {
      "hash": "0xc49a47642dbf60ab083d4ab5ab10fe13e35677539c2aeddf4daa4b8b14bb84fb",
      "transactionType": "CALL",
      "contractName": null,
      "contractAddress": "0x69207f321cfdfd30d73d1d9278e4132e15080ec9",
      "function": "createToken(bytes,bytes)",
      "arguments": [
        "0x000000000000000000000000000000000000000000000000000000000000002000000000000000000000000000000000000000000000000000000000000001e000000000000000000000000000000000000000000000000000000000000002200000000000000000000000000000000000000000033b2e3c9fd0803ce800000000000000000000000000000000000000000000000295be96e6406697200000000000000000000000000000000000000000000000000000008ac7230489e8000000000000000000000000000000000000000000000295be96e64066972000000000000000000000000000000000000000000000000000000000000000695e36b90000000000000000000000005a7157d6fd2ad4a9edc4686758be77ae480bfe6a00000000000000000000000000000000000000000000000000000000695e36b9e26bd51401558f6fc9dde65ef30701f3f690c2e7002d196035847b69f190b921000000000000000000000000000000000000000000000000000000000000000300000000000000000000000000000000000000000000000000000000000003e800000000000000000000000000000000000000000000000000000000000000000000000000000000000000000000000000000000000000000000000000000000000000000000000000000000000000000000000000000000000000000000026000000000000000000000000000000000000000000000000000000000000000145465737420546f6b656e20332056657374696e6700000000000000000000000000000000000000000000000000000000000000000000000000000000000000055445535433000000000000000000000000000000000000000000000000000000000000000000000000000000000000000000000000000000000000000000000200000000000000000000000000000000000000000000000000000000000001f400000000000000000000000000000000000000000000000000000000695e36b90000000000000000000000000000000000000000000000000000000000093a800000000000000000000000000000000000000000000000000000000000000002000000000000000000000000000000000000000000000000000000000000012c00000000000000000000000000000000000000000000000000000000695e36b90000000000000000000000000000000000000000000000000000000000278d000000000000000000000000000000000000000000000000000000000000000001",
        "0xc02ddf79d5cd675aabf893351cc3dd3e1eba2c0694d244b490bd5cda00e213574ad8dfc593563c06be7582e79d97a87ebc7dba450356d117201e5a0f8fd957c91b"
      ],
      "transaction": {
        "from": "0x5a7157d6fd2ad4a9edc4686758be77ae480bfe6a",
        "to": "0x69207f321cfdfd30d73d1d9278e4132e15080ec9",
        "gas": "0x23dc43",
        "value": "0x151d33398f214924",
        "input": "0x519ebb100000000000000000000000000000000000000000000000000000000000000040000000000000000000000000000000000000000000000000000000000000040000000000000000000000000000000000000000000000000000000000000003a0000000000000000000000000000000000000000000000000000000000000002000000000000000000000000000000000000000000000000000000000000001e000000000000000000000000000000000000000000000000000000000000002200000000000000000000000000000000000000000033b2e3c9fd0803ce800000000000000000000000000000000000000000000000295be96e6406697200000000000000000000000000000000000000000000000000000008ac7230489e8000000000000000000000000000000000000000000000295be96e64066972000000000000000000000000000000000000000000000000000000000000000695e36b90000000000000000000000005a7157d6fd2ad4a9edc4686758be77ae480bfe6a00000000000000000000000000000000000000000000000000000000695e36b9e26bd51401558f6fc9dde65ef30701f3f690c2e7002d196035847b69f190b921000000000000000000000000000000000000000000000000000000000000000300000000000000000000000000000000000000000000000000000000000003e800000000000000000000000000000000000000000000000000000000000000000000000000000000000000000000000000000000000000000000000000000000000000000000000000000000000000000000000000000000000000000000026000000000000000000000000000000000000000000000000000000000000000145465737420546f6b656e20332056657374696e6700000000000000000000000000000000000000000000000000000000000000000000000000000000000000055445535433000000000000000000000000000000000000000000000000000000000000000000000000000000000000000000000000000000000000000000000200000000000000000000000000000000000000000000000000000000000001f400000000000000000000000000000000000000000000000000000000695e36b90000000000000000000000000000000000000000000000000000000000093a800000000000000000000000000000000000000000000000000000000000000002000000000000000000000000000000000000000000000000000000000000012c00000000000000000000000000000000000000000000000000000000695e36b90000000000000000000000000000000000000000000000000000000000278d0000000000000000000000000000000000000000000000000000000000000000010000000000000000000000000000000000000000000000000000000000000041c02ddf79d5cd675aabf893351cc3dd3e1eba2c0694d244b490bd5cda00e213574ad8dfc593563c06be7582e79d97a87ebc7dba450356d117201e5a0f8fd957c91b00000000000000000000000000000000000000000000000000000000000000",
        "nonce": "0x43",
        "chainId": "0x61"
      },
      "additionalContracts": [
        {
          "transactionType": "CREATE2",
          "address": "0x7ce8c0c1d47ec51ed8bfd4d93581e8e1655a47b1",
          "initCode": "0x6080604052346103db5761128180380380610019816103df565b9283398101906080818303126103db5780516001600160401b0381116103db5782610045918301610404565b602082015190926001600160401b0382116103db57610065918301610404565b604082015160609092015190916001600160a01b038216918290036103db5783516001600160401b0381116102ec57600354600181811c911680156103d1575b60208210146102ce57601f811161036e575b50602094601f821160011461030b579481929394955f92610300575b50508160011b915f199060031b1c1916176003555b82516001600160401b0381116102ec57600454600181811c911680156102e2575b60208210146102ce57601f811161026b575b506020601f821160011461020857819293945f926101fd575b50508160011b915f199060031b1c1916176004555b81156101ee57600160ff19600554161760055580610186575b50600780546001600160a01b031916919091179055604051610e2b90816104568239f35b6002548181018091116101da577fddf252ad1be2c89b69c2b068fc378daa952ba7f163c4a11628f55a4df523b3ef602084935f9360025584845283825260408420818154019055604051908152a35f610162565b634e487b7160e01b5f52601160045260245ffd5b63d92e233d60e01b5f5260045ffd5b015190505f80610134565b601f1982169060045f52805f20915f5b8181106102535750958360019596971061023b575b505050811b01600455610149565b01515f1960f88460031b161c191690555f808061022d565b9192602060018192868b015181550194019201610218565b60045f527f8a35acfbc15ff81a39ae7d344fd709f28e8600b4aa8c65c6b64bfe7fe36bd19b601f830160051c810191602084106102c4575b601f0160051c01905b8181106102b9575061011b565b5f81556001016102ac565b90915081906102a3565b634e487b7160e01b5f52602260045260245ffd5b90607f1690610109565b634e487b7160e01b5f52604160045260245ffd5b015190505f806100d3565b601f1982169560035f52805f20915f5b8881106103565750836001959697981061033e575b505050811b016003556100e8565b01515f1960f88460031b161c191690555f8080610330565b9192602060018192868501518155019401920161031b565b60035f527fc2575a0e9e593c00f959f8c92f12db2869c3395a3b0502d05e2516446f71f85b601f830160051c810191602084106103c7575b601f0160051c01905b8181106103bc57506100b7565b5f81556001016103af565b90915081906103a6565b90607f16906100a5565b5f80fd5b6040519190601f01601f191682016001600160401b038111838210176102ec57604052565b81601f820112156103db578051906001600160401b0382116102ec57610433601f8301601f19166020016103df565b92828452602083830101116103db57815f9260208093018386015e830101529056fe6080806040526004361015610012575f80fd5b5f3560e01c90816306fdde031461070a57508063095ea7b3146106e457806318160ddd146106c757806323b872dd1461068f578063313ce56714610674578063395093511461061257806342966c68146105f55780635e6f6045146105c95780636b3b64a1146105a257806370a082311461056b57806374991569146104dc57806376ca3a86146104b457806379cc6790146104825780638187f516146103f35780638e33f6a81461036357806395d89b4114610248578063a457c2d7146101a5578063a8aa1b311461017d578063a9059cbb1461014c5763dd62ed3e146100f8575f80fd5b3461014857604036600319011261014857610111610803565b610119610819565b6001600160a01b039182165f908152600160209081526040808320949093168252928352819020549051908152f35b5f80fd5b3461014857604036600319011261014857610172610168610803565b60243590336109ec565b602060405160018152f35b34610148575f366003190112610148576006546040516001600160a01b039091168152602090f35b34610148576040366003190112610148576101be610803565b60243590335f52600160205260405f2060018060a01b0382165f5260205260405f2054918083106101f55761017292039033610850565b60405162461bcd60e51b815260206004820152602560248201527f45524332303a2064656372656173656420616c6c6f77616e63652062656c6f77604482015264207a65726f60d81b6064820152608490fd5b34610148575f366003190112610148576040515f6004548060011c90600181168015610359575b6020831081146103455782855290811561032957506001146102d4575b50819003601f01601f191681019067ffffffffffffffff8211818310176102c0576102bc829182604052826107d9565b0390f35b634e487b7160e01b5f52604160045260245ffd5b905060045f527f8a35acfbc15ff81a39ae7d344fd709f28e8600b4aa8c65c6b64bfe7fe36bd19b5f905b8282106103135750602091508201018261028c565b60018160209254838588010152019101906102fe565b90506020925060ff191682840152151560051b8201018261028c565b634e487b7160e01b5f52602260045260245ffd5b91607f169161026f565b34610148576020366003190112610148576004356003811015610148576007546001600160a01b031633036103e457604060ff6103e17fccedfef8abab65aaf6a3f2c86b1bd2a06375c0ab93cc5046fe397660cb712d21936103d7600554848316851982161760055585519485911661082f565b602083019061082f565ba1005b635630998760e11b5f5260045ffd5b346101485760203660031901126101485761040c610803565b6007546001600160a01b031633036103e4576001600160a01b03168015610473576020817fda4f21f533e11873a9e57f2f9cf7042ea0b213bc1c018b3f7988bb9025ec7c55926bffffffffffffffffffffffff60a01b6006541617600655604051908152a1005b63d92e233d60e01b5f5260045ffd5b34610148576040366003190112610148576104b261049e610803565b602435906104ad823383610954565b610b6f565b005b34610148575f366003190112610148576007546040516001600160a01b039091168152602090f35b34610148576020366003190112610148576104f5610803565b6007546001600160a01b031633036103e4576001600160a01b0381169081156104735760058054610100600160a81b03191660089290921b610100600160a81b03169190911790556040519081527f5dff00aa253c8624dbbbd26ea7b6b161327e629f5ed7a0cde6ff3c66cceb909f90602090a1005b34610148576020366003190112610148576001600160a01b0361058c610803565b165f525f602052602060405f2054604051908152f35b34610148575f36600319011261014857602060ff600554166105c7604051809261082f565bf35b34610148575f3660031901126101485760055460405160089190911c6001600160a01b03168152602090f35b34610148576020366003190112610148576104b260043533610b6f565b346101485760403660031901126101485761062b610803565b335f52600160205260405f2060018060a01b0382165f5260205260405f20546024358101809111610660576101729133610850565b634e487b7160e01b5f52601160045260245ffd5b34610148575f36600319011261014857602060405160128152f35b34610148576060366003190112610148576101726106ab610803565b6106b3610819565b604435916106c2833383610954565b6109ec565b34610148575f366003190112610148576020600254604051908152f35b3461014857604036600319011261014857610172610700610803565b6024359033610850565b34610148575f366003190112610148575f6003548060011c906001811680156107cf575b60208310811461034557828552908115610329575060011461077a5750819003601f01601f191681019067ffffffffffffffff8211818310176102c0576102bc829182604052826107d9565b905060035f527fc2575a0e9e593c00f959f8c92f12db2869c3395a3b0502d05e2516446f71f85b5f905b8282106107b95750602091508201018261028c565b60018160209254838588010152019101906107a4565b91607f169161072e565b602060409281835280519182918282860152018484015e5f828201840152601f01601f1916010190565b600435906001600160a01b038216820361014857565b602435906001600160a01b038216820361014857565b90600382101561083c5752565b634e487b7160e01b5f52602160045260245ffd5b6001600160a01b0316908115610903576001600160a01b03169182156108b35760207f8c5be1e5ebec7d5bd14f71427d1e84f3dd0314c0f7b2291e5b200ac8c7c3b92591835f526001825260405f20855f5282528060405f2055604051908152a3565b60405162461bcd60e51b815260206004820152602260248201527f45524332303a20617070726f766520746f20746865207a65726f206164647265604482015261737360f01b6064820152608490fd5b60405162461bcd60e51b8152602060048201526024808201527f45524332303a20617070726f76652066726f6d20746865207a65726f206164646044820152637265737360e01b6064820152608490fd5b9060018060a01b0382165f52600160205260405f2060018060a01b0382165f5260205260405f2054925f19840361098c575b50505050565b8084106109a75761099e930391610850565b5f808080610986565b60405162461bcd60e51b815260206004820152601d60248201527f45524332303a20696e73756666696369656e7420616c6c6f77616e63650000006044820152606490fd5b90916001600160a01b038216918215610b1c576001600160a01b038416938415610acb57610a1991610d4e565b815f525f60205260405f2054818110610a7757817fddf252ad1be2c89b69c2b068fc378daa952ba7f163c4a11628f55a4df523b3ef92602092855f525f84520360405f2055845f525f825260405f20818154019055604051908152a3565b60405162461bcd60e51b815260206004820152602660248201527f45524332303a207472616e7366657220616d6f756e7420657863656564732062604482015265616c616e636560d01b6064820152608490fd5b60405162461bcd60e51b815260206004820152602360248201527f45524332303a207472616e7366657220746f20746865207a65726f206164647260448201526265737360e81b6064820152608490fd5b60405162461bcd60e51b815260206004820152602560248201527f45524332303a207472616e736665722066726f6d20746865207a65726f206164604482015264647265737360d81b6064820152608490fd5b6001600160a01b038116908115610c3157610b8990610c80565b805f525f60205260405f205491808310610be1576020817fddf252ad1be2c89b69c2b068fc378daa952ba7f163c4a11628f55a4df523b3ef925f958587528684520360408620558060025403600255604051908152a3565b60405162461bcd60e51b815260206004820152602260248201527f45524332303a206275726e20616d6f756e7420657863656564732062616c616e604482015261636560f01b6064820152608490fd5b60405162461bcd60e51b815260206004820152602160248201527f45524332303a206275726e2066726f6d20746865207a65726f206164647265736044820152607360f81b6064820152608490fd5b6001600160a01b031680158015610d46575b610d2a573015610d375760055490600882901c6001600160a01b03169081149081610d2d575b50610d2a5760ff16600381101561083c5780151580610d17575b80610d03575b610cf457600114610ce557565b637413882f60e11b5f5260045ffd5b63918a96ad60e01b5f5260045ffd5b506006546001600160a01b03161515610cd8565b506006546001600160a01b031615610cd2565b50565b905015155f610cb8565b633928283160e21b5f5260045ffd5b506001610c92565b6001600160a01b03169081158015610de4575b610dd6576001600160a01b031690308214610d375760055490600882901c6001600160a01b03169081149081610dda575b50610dd65760ff1690600382101561083c578115159081610dc1575b5080610d0357610cf457600114610ce557565b6006546001600160a01b03161490505f610dae565b5050565b905015155f610d92565b506001600160a01b03811615610d6156fea26469706673582212208cb7ab480dc2a82966f5c7c1bc2b3cc56c29a0dfa937ff4a127a7a4779af488564736f6c634300081d0033000000000000000000000000000000000000000000000000000000000000008000000000000000000000000000000000000000000000000000000000000000c00000000000000000000000000000000000000000033b2e3c9fd0803ce800000000000000000000000000000069207f321cfdfd30d73d1d9278e4132e15080ec900000000000000000000000000000000000000000000000000000000000000145465737420546f6b656e20332056657374696e6700000000000000000000000000000000000000000000000000000000000000000000000000000000000000055445535433000000000000000000000000000000000000000000000000000000"
        }
      ],
      "isFixedGasLimit": false
    }
  ],
  "receipts": [
    {
      "status": "0x1",
      "cumulativeGasUsed": "0x13094f",
      "logs": [
        {
          "address": "0x5b02ebe72762596ba90884ee717e049833ed3500",
          "topics": [
            "0xddf252ad1be2c89b69c2b068fc378daa952ba7f163c4a11628f55a4df523b3ef",
            "0x0000000000000000000000000000000000000000000000000000000000000000",
            "0x00000000000000000000000069207f321cfdfd30d73d1d9278e4132e15080ec9"
          ],
          "data": "0x0000000000000000000000000000000000000000033b2e3c9fd0803ce8000000",
          "blockHash": "0xcbdb0194327f44e4d673ceda83acd9ce94f3f95edcadd2816c1c45d5d9855d95",
          "blockNumber": "0x4f2f1d4",
          "blockTimestamp": "0x695e36cd",
          "transactionHash": "0x29fd58b09532014fb188418fba063a1aba11493e97c59535283a61d03f32d0ed",
          "transactionIndex": "0x1",
          "logIndex": "0x0",
          "removed": false
        },
        {
          "address": "0x7a24756a156de5752a2d91d494d2d4fdcc9fc18f",
          "topics": [
            "0xd3be197cce361491a493686d4d62db34d0c2d3abfde52bf2b0c436e04ff6624b",
            "0x0000000000000000000000005b02ebe72762596ba90884ee717e049833ed3500",
            "0x00000000000000000000000069207f321cfdfd30d73d1d9278e4132e15080ec9"
          ],
          "data": "0x000000000000000000000000000000000000000000000000000000000000006000000000000000000000000000000000000000000000000000000000000000a00000000000000000000000000000000000000000033b2e3c9fd0803ce8000000000000000000000000000000000000000000000000000000000000000000000c5465737420546f6b656e2031000000000000000000000000000000000000000000000000000000000000000000000000000000000000000000000000000000055445535431000000000000000000000000000000000000000000000000000000",
          "blockHash": "0xcbdb0194327f44e4d673ceda83acd9ce94f3f95edcadd2816c1c45d5d9855d95",
          "blockNumber": "0x4f2f1d4",
          "blockTimestamp": "0x695e36cd",
          "transactionHash": "0x29fd58b09532014fb188418fba063a1aba11493e97c59535283a61d03f32d0ed",
          "transactionIndex": "0x1",
          "logIndex": "0x1",
          "removed": false
        },
        {
          "address": "0x5b02ebe72762596ba90884ee717e049833ed3500",
          "topics": [
            "0xda4f21f533e11873a9e57f2f9cf7042ea0b213bc1c018b3f7988bb9025ec7c55"
          ],
          "data": "0x000000000000000000000000dcbd9a166472a2e0381c36bbd5643f4b82b73b27",
          "blockHash": "0xcbdb0194327f44e4d673ceda83acd9ce94f3f95edcadd2816c1c45d5d9855d95",
          "blockNumber": "0x4f2f1d4",
          "blockTimestamp": "0x695e36cd",
          "transactionHash": "0x29fd58b09532014fb188418fba063a1aba11493e97c59535283a61d03f32d0ed",
          "transactionIndex": "0x1",
          "logIndex": "0x2",
          "removed": false
        },
        {
          "address": "0x5b02ebe72762596ba90884ee717e049833ed3500",
          "topics": [
            "0xccedfef8abab65aaf6a3f2c86b1bd2a06375c0ab93cc5046fe397660cb712d21"
          ],
          "data": "0x00000000000000000000000000000000000000000000000000000000000000010000000000000000000000000000000000000000000000000000000000000002",
          "blockHash": "0xcbdb0194327f44e4d673ceda83acd9ce94f3f95edcadd2816c1c45d5d9855d95",
          "blockNumber": "0x4f2f1d4",
          "blockTimestamp": "0x695e36cd",
          "transactionHash": "0x29fd58b09532014fb188418fba063a1aba11493e97c59535283a61d03f32d0ed",
          "transactionIndex": "0x1",
          "logIndex": "0x3",
          "removed": false
        },
        {
          "address": "0x5b02ebe72762596ba90884ee717e049833ed3500",
          "topics": [
            "0x5dff00aa253c8624dbbbd26ea7b6b161327e629f5ed7a0cde6ff3c66cceb909f"
          ],
          "data": "0x00000000000000000000000099cd9ca83277338583f40d6b689c0aa5e20bacad",
          "blockHash": "0xcbdb0194327f44e4d673ceda83acd9ce94f3f95edcadd2816c1c45d5d9855d95",
          "blockNumber": "0x4f2f1d4",
          "blockTimestamp": "0x695e36cd",
          "transactionHash": "0x29fd58b09532014fb188418fba063a1aba11493e97c59535283a61d03f32d0ed",
          "transactionIndex": "0x1",
          "logIndex": "0x4",
          "removed": false
        },
        {
          "address": "0x69207f321cfdfd30d73d1d9278e4132e15080ec9",
          "topics": [
            "0x56d4db12e38ba8a34e42c620325e4de85f5ae96ccfd125d01498d801659b81e1",
            "0x0000000000000000000000005b02ebe72762596ba90884ee717e049833ed3500",
            "0x0000000000000000000000005a7157d6fd2ad4a9edc4686758be77ae480bfe6a"
          ],
          "data": "0x000000000000000000000000000000000000000000000000000000000000008000000000000000000000000000000000000000000000000000000000000000c00000000000000000000000000000000000000000033b2e3c9fd0803ce8000000742a3a04701ba2b8901a024fdbaca95c8526caf4388efe470436e6ddc951ad5e000000000000000000000000000000000000000000000000000000000000000c5465737420546f6b656e2031000000000000000000000000000000000000000000000000000000000000000000000000000000000000000000000000000000055445535431000000000000000000000000000000000000000000000000000000",
          "blockHash": "0xcbdb0194327f44e4d673ceda83acd9ce94f3f95edcadd2816c1c45d5d9855d95",
          "blockNumber": "0x4f2f1d4",
          "blockTimestamp": "0x695e36cd",
          "transactionHash": "0x29fd58b09532014fb188418fba063a1aba11493e97c59535283a61d03f32d0ed",
          "transactionIndex": "0x1",
          "logIndex": "0x5",
          "removed": false
        }
      ],
      "logsBloom": "0x00000000000000000000000000000000000000000000000000200000000010000000000000000000000000400000200000000000000000000040000020000000c00000000000000000000008020000000000000400010000008000000800000000000000020000001000000800000800000000000000000000000010000000000000000010000000000000800000000002000000000008000000000000000000000000000000000000080000000000000000040000008000000000000004000000000082000000040000000000000000000800000800000000000008000020008000000000000000000000000080000000000000000000000000200040000400",
      "type": "0x0",
      "transactionHash": "0x29fd58b09532014fb188418fba063a1aba11493e97c59535283a61d03f32d0ed",
      "transactionIndex": "0x1",
      "blockHash": "0xcbdb0194327f44e4d673ceda83acd9ce94f3f95edcadd2816c1c45d5d9855d95",
      "blockNumber": "0x4f2f1d4",
      "gasUsed": "0x12b747",
      "effectiveGasPrice": "0x5f5e100",
      "from": "0x5a7157d6fd2ad4a9edc4686758be77ae480bfe6a",
      "to": "0x69207f321cfdfd30d73d1d9278e4132e15080ec9",
      "contractAddress": null
    },
    {
      "status": "0x1",
      "cumulativeGasUsed": "0x1533f3",
      "logs": [
        {
          "address": "0x5b02ebe72762596ba90884ee717e049833ed3500",
          "topics": [
            "0xddf252ad1be2c89b69c2b068fc378daa952ba7f163c4a11628f55a4df523b3ef",
            "0x00000000000000000000000069207f321cfdfd30d73d1d9278e4132e15080ec9",
            "0x0000000000000000000000005a7157d6fd2ad4a9edc4686758be77ae480bfe6a"
          ],
          "data": "0x00000000000000000000000000000000000000000000a78bf168e599322f004c",
          "blockHash": "0xcbdb0194327f44e4d673ceda83acd9ce94f3f95edcadd2816c1c45d5d9855d95",
          "blockNumber": "0x4f2f1d4",
          "blockTimestamp": "0x695e36cd",
          "transactionHash": "0x6791f9171df35f840d3b27a89eb5bbf90f1fbb8c43eb439761dd362e63e5a252",
          "transactionIndex": "0x2",
          "logIndex": "0x6",
          "removed": false
        },
        {
          "address": "0x69207f321cfdfd30d73d1d9278e4132e15080ec9",
          "topics": [
            "0xbde95e2b88621e549a1346c8b10be80be9445e6da8de8f40d6a8858f556ac554",
            "0x0000000000000000000000005b02ebe72762596ba90884ee717e049833ed3500",
            "0x0000000000000000000000005a7157d6fd2ad4a9edc4686758be77ae480bfe6a"
          ],
          "data": "0x00000000000000000000000000000000000000000000000000232bff5f46c00000000000000000000000000000000000000000000000a78bf168e599322f004c00000000000000000000000000000000000000000000000000005af3107a40000000000000000000000000000000000000000000000000008aea4f03e92ec00000000000000000000000000000000000000000000295170af4d780fdedd0ffb400000000000000000000000000000000000000000295170af4d780fdedd0ffb400000000000000000000000000000000000000000000000000232bff5f46c000",
          "blockHash": "0xcbdb0194327f44e4d673ceda83acd9ce94f3f95edcadd2816c1c45d5d9855d95",
          "blockNumber": "0x4f2f1d4",
          "blockTimestamp": "0x695e36cd",
          "transactionHash": "0x6791f9171df35f840d3b27a89eb5bbf90f1fbb8c43eb439761dd362e63e5a252",
          "transactionIndex": "0x2",
          "logIndex": "0x7",
          "removed": false
        }
      ],
      "logsBloom": "0x00000000000000000000000000000000000000000000000000000000000000000000000000000000000000000000200000000000000000000040000020000000400000000000000000000008020000000000000000010000008000000800000000000000000000000000008000000000000000000000000000000010000000000000000000000000000000000000000000000000000000000000004000000000000000000000000000080000000000000000000000000000000000000000000000000082000000000000000000000000000800000800400000000008000000000000000000000000000000000080000000000000000000000000000000000400",
      "type": "0x0",
      "transactionHash": "0x6791f9171df35f840d3b27a89eb5bbf90f1fbb8c43eb439761dd362e63e5a252",
      "transactionIndex": "0x2",
      "blockHash": "0xcbdb0194327f44e4d673ceda83acd9ce94f3f95edcadd2816c1c45d5d9855d95",
      "blockNumber": "0x4f2f1d4",
      "gasUsed": "0x22aa4",
      "effectiveGasPrice": "0x5f5e100",
      "from": "0x5a7157d6fd2ad4a9edc4686758be77ae480bfe6a",
      "to": "0x69207f321cfdfd30d73d1d9278e4132e15080ec9",
      "contractAddress": null
    },
    {
      "status": "0x1",
      "cumulativeGasUsed": "0x15e7d7",
      "logs": [
        {
          "address": "0x5b02ebe72762596ba90884ee717e049833ed3500",
          "topics": [
            "0x8c5be1e5ebec7d5bd14f71427d1e84f3dd0314c0f7b2291e5b200ac8c7c3b925",
            "0x0000000000000000000000005a7157d6fd2ad4a9edc4686758be77ae480bfe6a",
            "0x00000000000000000000000069207f321cfdfd30d73d1d9278e4132e15080ec9"
          ],
          "data": "0x0000000000000000000000000000000000000000000053c5f8b472cc99178026",
          "blockHash": "0xcbdb0194327f44e4d673ceda83acd9ce94f3f95edcadd2816c1c45d5d9855d95",
          "blockNumber": "0x4f2f1d4",
          "blockTimestamp": "0x695e36cd",
          "transactionHash": "0x14c5714070e9b12454bd347f303e4601822698858015b73d2b6d36ae2fe640b8",
          "transactionIndex": "0x3",
          "logIndex": "0x8",
          "removed": false
        }
      ],
      "logsBloom": "0x00000000000000000000000000000000000000000000000000000000000000000000000000000000000000000000200000000000000000000040000020200000000000000000000000000000000000000000000000000000008000000800000000000000000000000000000000000000000000000000000000000000000000000000000000000000000000000000000000000000000000000000000000000000020000000000000000080000000000000000000000000000000000000000000000000000000000000000000000000000000000000800000000000000000000000010000000000000000000000080000000000000000000000000000000000400",
      "type": "0x0",
      "transactionHash": "0x14c5714070e9b12454bd347f303e4601822698858015b73d2b6d36ae2fe640b8",
      "transactionIndex": "0x3",
      "blockHash": "0xcbdb0194327f44e4d673ceda83acd9ce94f3f95edcadd2816c1c45d5d9855d95",
      "blockNumber": "0x4f2f1d4",
      "gasUsed": "0xb3e4",
      "effectiveGasPrice": "0x5f5e100",
      "from": "0x5a7157d6fd2ad4a9edc4686758be77ae480bfe6a",
      "to": "0x5b02ebe72762596ba90884ee717e049833ed3500",
      "contractAddress": null
    },
    {
      "status": "0x1",
      "cumulativeGasUsed": "0x17b4f9",
      "logs": [
        {
          "address": "0x5b02ebe72762596ba90884ee717e049833ed3500",
          "topics": [
            "0x8c5be1e5ebec7d5bd14f71427d1e84f3dd0314c0f7b2291e5b200ac8c7c3b925",
            "0x0000000000000000000000005a7157d6fd2ad4a9edc4686758be77ae480bfe6a",
            "0x00000000000000000000000069207f321cfdfd30d73d1d9278e4132e15080ec9"
          ],
          "data": "0x0000000000000000000000000000000000000000000000000000000000000000",
          "blockHash": "0xcbdb0194327f44e4d673ceda83acd9ce94f3f95edcadd2816c1c45d5d9855d95",
          "blockNumber": "0x4f2f1d4",
          "blockTimestamp": "0x695e36cd",
          "transactionHash": "0xd8faddb84dc45af8637da3f8f8d40d923d54d720ae0d12486c2193d9ec08dc7e",
          "transactionIndex": "0x4",
          "logIndex": "0x9",
          "removed": false
        },
        {
          "address": "0x5b02ebe72762596ba90884ee717e049833ed3500",
          "topics": [
            "0xddf252ad1be2c89b69c2b068fc378daa952ba7f163c4a11628f55a4df523b3ef",
            "0x0000000000000000000000005a7157d6fd2ad4a9edc4686758be77ae480bfe6a",
            "0x00000000000000000000000069207f321cfdfd30d73d1d9278e4132e15080ec9"
          ],
          "data": "0x0000000000000000000000000000000000000000000053c5f8b472cc99178026",
          "blockHash": "0xcbdb0194327f44e4d673ceda83acd9ce94f3f95edcadd2816c1c45d5d9855d95",
          "blockNumber": "0x4f2f1d4",
          "blockTimestamp": "0x695e36cd",
          "transactionHash": "0xd8faddb84dc45af8637da3f8f8d40d923d54d720ae0d12486c2193d9ec08dc7e",
          "transactionIndex": "0x4",
          "logIndex": "0xa",
          "removed": false
        },
        {
          "address": "0x69207f321cfdfd30d73d1d9278e4132e15080ec9",
          "topics": [
            "0x2067389fa94610326e668e4344cbceda1527971351d95bc67cbf3e77491e493b",
            "0x0000000000000000000000005b02ebe72762596ba90884ee717e049833ed3500",
            "0x0000000000000000000000005a7157d6fd2ad4a9edc4686758be77ae480bfe6a"
          ],
          "data": "0x0000000000000000000000000000000000000000000053c5f8b472cc9917802600000000000000000000000000000000000000000000000000116b2f14015a4700000000000000000000000000000000000000000000000000002d0ad1a8182f0000000000000000000000000000000000000000000000008ad8b6ca03854d8a000000000000000000000000000000000000000002956ad0ed8bf3ca86e87fda000000000000000000000000000000000000000002956ad0ed8bf3ca86e87fda000000000000000000000000000000000000000000000000001193c5799d4d8a",
          "blockHash": "0xcbdb0194327f44e4d673ceda83acd9ce94f3f95edcadd2816c1c45d5d9855d95",
          "blockNumber": "0x4f2f1d4",
          "blockTimestamp": "0x695e36cd",
          "transactionHash": "0xd8faddb84dc45af8637da3f8f8d40d923d54d720ae0d12486c2193d9ec08dc7e",
          "transactionIndex": "0x4",
          "logIndex": "0xb",
          "removed": false
        }
      ],
      "logsBloom": "0x00000000000000000000000000000000000000000020000000000000000000000000000000000000000000000000200000000000400000000040000020200000400000000000000000000008020000000000000040010000008000000800000000000000000000000000000000000000000000000000000000000010000000000000000000000000000000000000000000000000000000000000000000000000020000000000000000080000000000000000000000000000000000000000000000000082000000000000000000000000000800000800000000000008000000000010000000000000000000000080000000000000000000000000000000000400",
      "type": "0x0",
      "transactionHash": "0xd8faddb84dc45af8637da3f8f8d40d923d54d720ae0d12486c2193d9ec08dc7e",
      "transactionIndex": "0x4",
      "blockHash": "0xcbdb0194327f44e4d673ceda83acd9ce94f3f95edcadd2816c1c45d5d9855d95",
      "blockNumber": "0x4f2f1d4",
      "gasUsed": "0x1cd22",
      "effectiveGasPrice": "0x5f5e100",
      "from": "0x5a7157d6fd2ad4a9edc4686758be77ae480bfe6a",
      "to": "0x69207f321cfdfd30d73d1d9278e4132e15080ec9",
      "contractAddress": null
    },
    {
      "status": "0x1",
      "cumulativeGasUsed": "0x2b5404",
      "logs": [
        {
          "address": "0x681855f1982d1effa97d3fcb7f9a4949691ccc30",
          "topics": [
            "0xddf252ad1be2c89b69c2b068fc378daa952ba7f163c4a11628f55a4df523b3ef",
            "0x0000000000000000000000000000000000000000000000000000000000000000",
            "0x00000000000000000000000069207f321cfdfd30d73d1d9278e4132e15080ec9"
          ],
          "data": "0x0000000000000000000000000000000000000000033b2e3c9fd0803ce8000000",
          "blockHash": "0xcbdb0194327f44e4d673ceda83acd9ce94f3f95edcadd2816c1c45d5d9855d95",
          "blockNumber": "0x4f2f1d4",
          "blockTimestamp": "0x695e36cd",
          "transactionHash": "0x9cb78578abb52512d92b5d233d9257efeddc7d779744a77b33d18142688f39c3",
          "transactionIndex": "0x5",
          "logIndex": "0xc",
          "removed": false
        },
        {
          "address": "0x7a24756a156de5752a2d91d494d2d4fdcc9fc18f",
          "topics": [
            "0xd3be197cce361491a493686d4d62db34d0c2d3abfde52bf2b0c436e04ff6624b",
            "0x000000000000000000000000681855f1982d1effa97d3fcb7f9a4949691ccc30",
            "0x00000000000000000000000069207f321cfdfd30d73d1d9278e4132e15080ec9"
          ],
          "data": "0x000000000000000000000000000000000000000000000000000000000000006000000000000000000000000000000000000000000000000000000000000000a00000000000000000000000000000000000000000033b2e3c9fd0803ce800000000000000000000000000000000000000000000000000000000000000000000175465737420546f6b656e203220496e697469616c42757900000000000000000000000000000000000000000000000000000000000000000000000000000000055445535432000000000000000000000000000000000000000000000000000000",
          "blockHash": "0xcbdb0194327f44e4d673ceda83acd9ce94f3f95edcadd2816c1c45d5d9855d95",
          "blockNumber": "0x4f2f1d4",
          "blockTimestamp": "0x695e36cd",
          "transactionHash": "0x9cb78578abb52512d92b5d233d9257efeddc7d779744a77b33d18142688f39c3",
          "transactionIndex": "0x5",
          "logIndex": "0xd",
          "removed": false
        },
        {
          "address": "0x681855f1982d1effa97d3fcb7f9a4949691ccc30",
          "topics": [
            "0xda4f21f533e11873a9e57f2f9cf7042ea0b213bc1c018b3f7988bb9025ec7c55"
          ],
          "data": "0x0000000000000000000000008b24f49ef3b3ac82355b19e7903a7eca270ca0a4",
          "blockHash": "0xcbdb0194327f44e4d673ceda83acd9ce94f3f95edcadd2816c1c45d5d9855d95",
          "blockNumber": "0x4f2f1d4",
          "blockTimestamp": "0x695e36cd",
          "transactionHash": "0x9cb78578abb52512d92b5d233d9257efeddc7d779744a77b33d18142688f39c3",
          "transactionIndex": "0x5",
          "logIndex": "0xe",
          "removed": false
        },
        {
          "address": "0x681855f1982d1effa97d3fcb7f9a4949691ccc30",
          "topics": [
            "0xccedfef8abab65aaf6a3f2c86b1bd2a06375c0ab93cc5046fe397660cb712d21"
          ],
          "data": "0x00000000000000000000000000000000000000000000000000000000000000010000000000000000000000000000000000000000000000000000000000000002",
          "blockHash": "0xcbdb0194327f44e4d673ceda83acd9ce94f3f95edcadd2816c1c45d5d9855d95",
          "blockNumber": "0x4f2f1d4",
          "blockTimestamp": "0x695e36cd",
          "transactionHash": "0x9cb78578abb52512d92b5d233d9257efeddc7d779744a77b33d18142688f39c3",
          "transactionIndex": "0x5",
          "logIndex": "0xf",
          "removed": false
        },
        {
          "address": "0x681855f1982d1effa97d3fcb7f9a4949691ccc30",
          "topics": [
            "0x5dff00aa253c8624dbbbd26ea7b6b161327e629f5ed7a0cde6ff3c66cceb909f"
          ],
          "data": "0x00000000000000000000000099cd9ca83277338583f40d6b689c0aa5e20bacad",
          "blockHash": "0xcbdb0194327f44e4d673ceda83acd9ce94f3f95edcadd2816c1c45d5d9855d95",
          "blockNumber": "0x4f2f1d4",
          "blockTimestamp": "0x695e36cd",
          "transactionHash": "0x9cb78578abb52512d92b5d233d9257efeddc7d779744a77b33d18142688f39c3",
          "transactionIndex": "0x5",
          "logIndex": "0x10",
          "removed": false
        },
        {
          "address": "0x681855f1982d1effa97d3fcb7f9a4949691ccc30",
          "topics": [
            "0xddf252ad1be2c89b69c2b068fc378daa952ba7f163c4a11628f55a4df523b3ef",
            "0x00000000000000000000000069207f321cfdfd30d73d1d9278e4132e15080ec9",
            "0x0000000000000000000000005a7157d6fd2ad4a9edc4686758be77ae480bfe6a"
          ],
          "data": "0x000000000000000000000000000000000000000000295be96e64066972000000",
          "blockHash": "0xcbdb0194327f44e4d673ceda83acd9ce94f3f95edcadd2816c1c45d5d9855d95",
          "blockNumber": "0x4f2f1d4",
          "blockTimestamp": "0x695e36cd",
          "transactionHash": "0x9cb78578abb52512d92b5d233d9257efeddc7d779744a77b33d18142688f39c3",
          "transactionIndex": "0x5",
          "logIndex": "0x11",
          "removed": false
        },
        {
          "address": "0x69207f321cfdfd30d73d1d9278e4132e15080ec9",
          "topics": [
            "0xa31a38e6668cb1ffb657385831d85ebd1fb88585e957850eb86a00017fb9c2ce",
            "0x000000000000000000000000681855f1982d1effa97d3fcb7f9a4949691ccc30",
            "0x0000000000000000000000005a7157d6fd2ad4a9edc4686758be77ae480bfe6a"
          ],
          "data": "0x000000000000000000000000000000000000000000295be96e64066972000000000000000000000000000000000000000000000000000000094079cd1a42aaaa00000000000000000000000000000000000000000000000000000000000001f4",
          "blockHash": "0xcbdb0194327f44e4d673ceda83acd9ce94f3f95edcadd2816c1c45d5d9855d95",
          "blockNumber": "0x4f2f1d4",
          "blockTimestamp": "0x695e36cd",
          "transactionHash": "0x9cb78578abb52512d92b5d233d9257efeddc7d779744a77b33d18142688f39c3",
          "transactionIndex": "0x5",
          "logIndex": "0x12",
          "removed": false
        },
        {
          "address": "0x69207f321cfdfd30d73d1d9278e4132e15080ec9",
          "topics": [
            "0x56d4db12e38ba8a34e42c620325e4de85f5ae96ccfd125d01498d801659b81e1",
            "0x000000000000000000000000681855f1982d1effa97d3fcb7f9a4949691ccc30",
            "0x0000000000000000000000005a7157d6fd2ad4a9edc4686758be77ae480bfe6a"
          ],
          "data": "0x000000000000000000000000000000000000000000000000000000000000008000000000000000000000000000000000000000000000000000000000000000c00000000000000000000000000000000000000000033b2e3c9fd0803ce80000009fd6e853c800cd0dbc57e4086c458a63dcbdc09a7fa3fc38940e4b343676768900000000000000000000000000000000000000000000000000000000000000175465737420546f6b656e203220496e697469616c42757900000000000000000000000000000000000000000000000000000000000000000000000000000000055445535432000000000000000000000000000000000000000000000000000000",
          "blockHash": "0xcbdb0194327f44e4d673ceda83acd9ce94f3f95edcadd2816c1c45d5d9855d95",
          "blockNumber": "0x4f2f1d4",
          "blockTimestamp": "0x695e36cd",
          "transactionHash": "0x9cb78578abb52512d92b5d233d9257efeddc7d779744a77b33d18142688f39c3",
          "transactionIndex": "0x5",
          "logIndex": "0x13",
          "removed": false
        }
      ],
      "logsBloom": "0x00004000000000000000000000000000000000000000000000200000000010000000000000004000000000400000000000000000000000000040000020000000800000000000000000000008000000000004000400010000000000000800040000000000020000001000000800000800000000000000000000000010000000000000000010000000000000800000000002000000080018000000000000000000000000000000000000000000000000000000040000008000000000000004000000000082000400040000000000000000000800000800000000400000000020008000000000000000000000000080000000000000000000200000200040000400",
      "type": "0x0",
      "transactionHash": "0x9cb78578abb52512d92b5d233d9257efeddc7d779744a77b33d18142688f39c3",
      "transactionIndex": "0x5",
      "blockHash": "0xcbdb0194327f44e4d673ceda83acd9ce94f3f95edcadd2816c1c45d5d9855d95",
      "blockNumber": "0x4f2f1d4",
      "gasUsed": "0x139f0b",
      "effectiveGasPrice": "0x5f5e100",
      "from": "0x5a7157d6fd2ad4a9edc4686758be77ae480bfe6a",
      "to": "0x69207f321cfdfd30d73d1d9278e4132e15080ec9",
      "contractAddress": null
    },
    {
      "status": "0x1",
      "cumulativeGasUsed": "0x43d91f",
      "logs": [
        {
          "address": "0x7ce8c0c1d47ec51ed8bfd4d93581e8e1655a47b1",
          "topics": [
            "0xddf252ad1be2c89b69c2b068fc378daa952ba7f163c4a11628f55a4df523b3ef",
            "0x0000000000000000000000000000000000000000000000000000000000000000",
            "0x00000000000000000000000069207f321cfdfd30d73d1d9278e4132e15080ec9"
          ],
          "data": "0x0000000000000000000000000000000000000000033b2e3c9fd0803ce8000000",
          "blockHash": "0xcbdb0194327f44e4d673ceda83acd9ce94f3f95edcadd2816c1c45d5d9855d95",
          "blockNumber": "0x4f2f1d4",
          "blockTimestamp": "0x695e36cd",
          "transactionHash": "0xc49a47642dbf60ab083d4ab5ab10fe13e35677539c2aeddf4daa4b8b14bb84fb",
          "transactionIndex": "0x6",
          "logIndex": "0x14",
          "removed": false
        },
        {
          "address": "0x7a24756a156de5752a2d91d494d2d4fdcc9fc18f",
          "topics": [
            "0xd3be197cce361491a493686d4d62db34d0c2d3abfde52bf2b0c436e04ff6624b",
            "0x0000000000000000000000007ce8c0c1d47ec51ed8bfd4d93581e8e1655a47b1",
            "0x00000000000000000000000069207f321cfdfd30d73d1d9278e4132e15080ec9"
          ],
          "data": "0x000000000000000000000000000000000000000000000000000000000000006000000000000000000000000000000000000000000000000000000000000000a00000000000000000000000000000000000000000033b2e3c9fd0803ce800000000000000000000000000000000000000000000000000000000000000000000145465737420546f6b656e20332056657374696e6700000000000000000000000000000000000000000000000000000000000000000000000000000000000000055445535433000000000000000000000000000000000000000000000000000000",
          "blockHash": "0xcbdb0194327f44e4d673ceda83acd9ce94f3f95edcadd2816c1c45d5d9855d95",
          "blockNumber": "0x4f2f1d4",
          "blockTimestamp": "0x695e36cd",
          "transactionHash": "0xc49a47642dbf60ab083d4ab5ab10fe13e35677539c2aeddf4daa4b8b14bb84fb",
          "transactionIndex": "0x6",
          "logIndex": "0x15",
          "removed": false
        },
        {
          "address": "0x7ce8c0c1d47ec51ed8bfd4d93581e8e1655a47b1",
          "topics": [
            "0xda4f21f533e11873a9e57f2f9cf7042ea0b213bc1c018b3f7988bb9025ec7c55"
          ],
          "data": "0x000000000000000000000000e5be4f128bf518eef9eaffdbb4a9f99fdb0a18a8",
          "blockHash": "0xcbdb0194327f44e4d673ceda83acd9ce94f3f95edcadd2816c1c45d5d9855d95",
          "blockNumber": "0x4f2f1d4",
          "blockTimestamp": "0x695e36cd",
          "transactionHash": "0xc49a47642dbf60ab083d4ab5ab10fe13e35677539c2aeddf4daa4b8b14bb84fb",
          "transactionIndex": "0x6",
          "logIndex": "0x16",
          "removed": false
        },
        {
          "address": "0x7ce8c0c1d47ec51ed8bfd4d93581e8e1655a47b1",
          "topics": [
            "0xccedfef8abab65aaf6a3f2c86b1bd2a06375c0ab93cc5046fe397660cb712d21"
          ],
          "data": "0x00000000000000000000000000000000000000000000000000000000000000010000000000000000000000000000000000000000000000000000000000000002",
          "blockHash": "0xcbdb0194327f44e4d673ceda83acd9ce94f3f95edcadd2816c1c45d5d9855d95",
          "blockNumber": "0x4f2f1d4",
          "blockTimestamp": "0x695e36cd",
          "transactionHash": "0xc49a47642dbf60ab083d4ab5ab10fe13e35677539c2aeddf4daa4b8b14bb84fb",
          "transactionIndex": "0x6",
          "logIndex": "0x17",
          "removed": false
        },
        {
          "address": "0x7ce8c0c1d47ec51ed8bfd4d93581e8e1655a47b1",
          "topics": [
            "0x5dff00aa253c8624dbbbd26ea7b6b161327e629f5ed7a0cde6ff3c66cceb909f"
          ],
          "data": "0x00000000000000000000000099cd9ca83277338583f40d6b689c0aa5e20bacad",
          "blockHash": "0xcbdb0194327f44e4d673ceda83acd9ce94f3f95edcadd2816c1c45d5d9855d95",
          "blockNumber": "0x4f2f1d4",
          "blockTimestamp": "0x695e36cd",
          "transactionHash": "0xc49a47642dbf60ab083d4ab5ab10fe13e35677539c2aeddf4daa4b8b14bb84fb",
          "transactionIndex": "0x6",
          "logIndex": "0x18",
          "removed": false
        },
        {
          "address": "0x7ce8c0c1d47ec51ed8bfd4d93581e8e1655a47b1",
          "topics": [
            "0x8c5be1e5ebec7d5bd14f71427d1e84f3dd0314c0f7b2291e5b200ac8c7c3b925",
            "0x00000000000000000000000069207f321cfdfd30d73d1d9278e4132e15080ec9",
            "0x00000000000000000000000099cd9ca83277338583f40d6b689c0aa5e20bacad"
          ],
          "data": "0x000000000000000000000000000000000000000000422ca8b0a00a4250000000",
          "blockHash": "0xcbdb0194327f44e4d673ceda83acd9ce94f3f95edcadd2816c1c45d5d9855d95",
          "blockNumber": "0x4f2f1d4",
          "blockTimestamp": "0x695e36cd",
          "transactionHash": "0xc49a47642dbf60ab083d4ab5ab10fe13e35677539c2aeddf4daa4b8b14bb84fb",
          "transactionIndex": "0x6",
          "logIndex": "0x19",
          "removed": false
        },
        {
          "address": "0x7ce8c0c1d47ec51ed8bfd4d93581e8e1655a47b1",
          "topics": [
            "0x8c5be1e5ebec7d5bd14f71427d1e84f3dd0314c0f7b2291e5b200ac8c7c3b925",
            "0x00000000000000000000000069207f321cfdfd30d73d1d9278e4132e15080ec9",
            "0x00000000000000000000000099cd9ca83277338583f40d6b689c0aa5e20bacad"
          ],
          "data": "0x0000000000000000000000000000000000000000000000000000000000000000",
          "blockHash": "0xcbdb0194327f44e4d673ceda83acd9ce94f3f95edcadd2816c1c45d5d9855d95",
          "blockNumber": "0x4f2f1d4",
          "blockTimestamp": "0x695e36cd",
          "transactionHash": "0xc49a47642dbf60ab083d4ab5ab10fe13e35677539c2aeddf4daa4b8b14bb84fb",
          "transactionIndex": "0x6",
          "logIndex": "0x1a",
          "removed": false
        },
        {
          "address": "0x7ce8c0c1d47ec51ed8bfd4d93581e8e1655a47b1",
          "topics": [
            "0xddf252ad1be2c89b69c2b068fc378daa952ba7f163c4a11628f55a4df523b3ef",
            "0x00000000000000000000000069207f321cfdfd30d73d1d9278e4132e15080ec9",
            "0x00000000000000000000000099cd9ca83277338583f40d6b689c0aa5e20bacad"
          ],
          "data": "0x000000000000000000000000000000000000000000422ca8b0a00a4250000000",
          "blockHash": "0xcbdb0194327f44e4d673ceda83acd9ce94f3f95edcadd2816c1c45d5d9855d95",
          "blockNumber": "0x4f2f1d4",
          "blockTimestamp": "0x695e36cd",
          "transactionHash": "0xc49a47642dbf60ab083d4ab5ab10fe13e35677539c2aeddf4daa4b8b14bb84fb",
          "transactionIndex": "0x6",
          "logIndex": "0x1b",
          "removed": false
        },
        {
          "address": "0x99cd9ca83277338583f40d6b689c0aa5e20bacad",
          "topics": [
            "0xe0b145f3c35f50ba5a1344bf4ff236eb25d50eec15f28bfb57d6ff7af3257242",
            "0x0000000000000000000000007ce8c0c1d47ec51ed8bfd4d93581e8e1655a47b1",
            "0x0000000000000000000000005a7157d6fd2ad4a9edc4686758be77ae480bfe6a"
          ],
          "data": "0x0000000000000000000000000000000000000000000000000000000000000000000000000000000000000000000000000000000000295be96e6406697200000000000000000000000000000000000000000000000000000000000000695e36b90000000000000000000000000000000000000000000000000000000069677139",
          "blockHash": "0xcbdb0194327f44e4d673ceda83acd9ce94f3f95edcadd2816c1c45d5d9855d95",
          "blockNumber": "0x4f2f1d4",
          "blockTimestamp": "0x695e36cd",
          "transactionHash": "0xc49a47642dbf60ab083d4ab5ab10fe13e35677539c2aeddf4daa4b8b14bb84fb",
          "transactionIndex": "0x6",
          "logIndex": "0x1c",
          "removed": false
        },
        {
          "address": "0x99cd9ca83277338583f40d6b689c0aa5e20bacad",
          "topics": [
            "0xe0b145f3c35f50ba5a1344bf4ff236eb25d50eec15f28bfb57d6ff7af3257242",
            "0x0000000000000000000000007ce8c0c1d47ec51ed8bfd4d93581e8e1655a47b1",
            "0x0000000000000000000000005a7157d6fd2ad4a9edc4686758be77ae480bfe6a"
          ],
          "data": "0x000000000000000000000000000000000000000000000000000000000000000100000000000000000000000000000000000000000018d0bf423c03d8de00000000000000000000000000000000000000000000000000000000000000695e36b9000000000000000000000000000000000000000000000000000000006985c3b9",
          "blockHash": "0xcbdb0194327f44e4d673ceda83acd9ce94f3f95edcadd2816c1c45d5d9855d95",
          "blockNumber": "0x4f2f1d4",
          "blockTimestamp": "0x695e36cd",
          "transactionHash": "0xc49a47642dbf60ab083d4ab5ab10fe13e35677539c2aeddf4daa4b8b14bb84fb",
          "transactionIndex": "0x6",
          "logIndex": "0x1d",
          "removed": false
        },
        {
          "address": "0x69207f321cfdfd30d73d1d9278e4132e15080ec9",
          "topics": [
            "0x1fa0b22f78385180668c3daa666fbb365854697bc4033e144adc37f12aa88dfa",
            "0x0000000000000000000000007ce8c0c1d47ec51ed8bfd4d93581e8e1655a47b1",
            "0x0000000000000000000000005a7157d6fd2ad4a9edc4686758be77ae480bfe6a"
          ],
          "data": "0x000000000000000000000000000000000000000000422ca8b0a00a42500000000000000000000000000000000000000000000000000000000000000000000002",
          "blockHash": "0xcbdb0194327f44e4d673ceda83acd9ce94f3f95edcadd2816c1c45d5d9855d95",
          "blockNumber": "0x4f2f1d4",
          "blockTimestamp": "0x695e36cd",
          "transactionHash": "0xc49a47642dbf60ab083d4ab5ab10fe13e35677539c2aeddf4daa4b8b14bb84fb",
          "transactionIndex": "0x6",
          "logIndex": "0x1e",
          "removed": false
        },
        {
          "address": "0x7ce8c0c1d47ec51ed8bfd4d93581e8e1655a47b1",
          "topics": [
            "0xddf252ad1be2c89b69c2b068fc378daa952ba7f163c4a11628f55a4df523b3ef",
            "0x00000000000000000000000069207f321cfdfd30d73d1d9278e4132e15080ec9",
            "0x0000000000000000000000005a7157d6fd2ad4a9edc4686758be77ae480bfe6a"
          ],
          "data": "0x000000000000000000000000000000000000000000108b2a2c28029094000000",
          "blockHash": "0xcbdb0194327f44e4d673ceda83acd9ce94f3f95edcadd2816c1c45d5d9855d95",
          "blockNumber": "0x4f2f1d4",
          "blockTimestamp": "0x695e36cd",
          "transactionHash": "0xc49a47642dbf60ab083d4ab5ab10fe13e35677539c2aeddf4daa4b8b14bb84fb",
          "transactionIndex": "0x6",
          "logIndex": "0x1f",
          "removed": false
        },
        {
          "address": "0x69207f321cfdfd30d73d1d9278e4132e15080ec9",
          "topics": [
            "0xa31a38e6668cb1ffb657385831d85ebd1fb88585e957850eb86a00017fb9c2ce",
            "0x0000000000000000000000007ce8c0c1d47ec51ed8bfd4d93581e8e1655a47b1",
            "0x0000000000000000000000005a7157d6fd2ad4a9edc4686758be77ae480bfe6a"
          ],
          "data": "0x00000000000000000000000000000000000000000052b7d2dcc80cd2e400000000000000000000000000000000000000000000000000000013d34e253845b6db00000000000000000000000000000000000000000000000000000000000003e8",
          "blockHash": "0xcbdb0194327f44e4d673ceda83acd9ce94f3f95edcadd2816c1c45d5d9855d95",
          "blockNumber": "0x4f2f1d4",
          "blockTimestamp": "0x695e36cd",
          "transactionHash": "0xc49a47642dbf60ab083d4ab5ab10fe13e35677539c2aeddf4daa4b8b14bb84fb",
          "transactionIndex": "0x6",
          "logIndex": "0x20",
          "removed": false
        },
        {
          "address": "0x69207f321cfdfd30d73d1d9278e4132e15080ec9",
          "topics": [
            "0x56d4db12e38ba8a34e42c620325e4de85f5ae96ccfd125d01498d801659b81e1",
            "0x0000000000000000000000007ce8c0c1d47ec51ed8bfd4d93581e8e1655a47b1",
            "0x0000000000000000000000005a7157d6fd2ad4a9edc4686758be77ae480bfe6a"
          ],
          "data": "0x000000000000000000000000000000000000000000000000000000000000008000000000000000000000000000000000000000000000000000000000000000c00000000000000000000000000000000000000000033b2e3c9fd0803ce8000000e26bd51401558f6fc9dde65ef30701f3f690c2e7002d196035847b69f190b92100000000000000000000000000000000000000000000000000000000000000145465737420546f6b656e20332056657374696e6700000000000000000000000000000000000000000000000000000000000000000000000000000000000000055445535433000000000000000000000000000000000000000000000000000000",
          "blockHash": "0xcbdb0194327f44e4d673ceda83acd9ce94f3f95edcadd2816c1c45d5d9855d95",
          "blockNumber": "0x4f2f1d4",
          "blockTimestamp": "0x695e36cd",
          "transactionHash": "0xc49a47642dbf60ab083d4ab5ab10fe13e35677539c2aeddf4daa4b8b14bb84fb",
          "transactionIndex": "0x6",
          "logIndex": "0x21",
          "removed": false
        }
      ],
      "logsBloom": "0x000000000000000000000000000000000010000000000000002000000000100000000000000040000000004000000000000000000000100000400200202000008000000000010000000000080000000000000004000300000000001008000000000000000200000010000008000008010000000000000000000000b0000000040000000010000080000000800000000002000000080008000000000000000000020000000000000000000000000000000000040000008010000000020004000001000082000400040080000000000000000800800800000000400000000020008010000000000000000000000080000000000000000000000000200040400400",
      "type": "0x0",
      "transactionHash": "0xc49a47642dbf60ab083d4ab5ab10fe13e35677539c2aeddf4daa4b8b14bb84fb",
      "transactionIndex": "0x6",
      "blockHash": "0xcbdb0194327f44e4d673ceda83acd9ce94f3f95edcadd2816c1c45d5d9855d95",
      "blockNumber": "0x4f2f1d4",
      "gasUsed": "0x18851b",
      "effectiveGasPrice": "0x5f5e100",
      "from": "0x5a7157d6fd2ad4a9edc4686758be77ae480bfe6a",
      "to": "0x69207f321cfdfd30d73d1d9278e4132e15080ec9",
      "contractAddress": null
    }
  ],
  "libraries": [],
  "pending": [],
  "returns": {},
  "timestamp": 1767782094,
  "chain": 97,
  "commit": "f8320ed"
}